:10000000A5EF22F00000000000EF00F0000000006B
:0A0010000000000000000000F3D71C
:10001C000B820BAE18EF00F00368026801680068F1
:08002C000A360232FF0E120039
:0E003400026A016A006A086A036A000E12007E
:100042000B840BAE2CEF00F0010E036E026A016A04
:0A005200006A0A360232FF0E1200A7
:08005C000AAE029E000E120024
:100064000CB074EF00F00CA21AEF01F00E6A000E4F
:1000740002648BEF00F0F00E0214D8A456EF00F0E7
:10008400023A01380F0B02260138F00B016E0038DA
:100094000F0B01260038F00B006E08380F0B0026FA
:1000A4000838F00B086E0E84D89002BE6FEF00F093
:1000B40008360036013602360E2A02BE6FEF00F013
:1000C40008360036013602360E2A02BE6FEF00F003
:1000D40008360036013602360E2A0E50036410EF3D
:1000E40001F0035E0BBC08AE15EF01F0D880800E62
:1000F40008640030000E002201220222D8A015EF6D
:1001040001F0023201320032034A1AEF01F015EF16
:1001140001F001C002F000C001F008C000F0086A5C
:10012400000E0E860264C2EF00F0F00E0214D8A492
:10013400AAEF00F0023A01380F0B02260138F00B47
:10014400016E00380F0B01260038F00B006E0E8490
:10015400D89002BE6FEF00F00036013602360E2A48
:1001640002BE6FEF00F00036013602360E2A02BEE0
:100174006FEF00F00036013602360E2A6FEF00F002
:1001840001C002F000C001F0006A000E0E960E8855
:100194000264EFEF00F0F00E0214D8A4DAEF00F0DE
:1001A400023A01380F0B02260138F00B016E0E845F
:1001B400D89002BE6FEF00F0013602360E2A02BE5E
:1001C4006FEF00F0013602360E2A02BE6FEF00F028
:1001D400013602360E2A6FEF00F001C002F0016A08
:1001E400000E0E8602641FEF01F0F00E0214D8A474
:1001F400FEEF00F0023A0E84D89002BE6FEF00F0DA
:1002040002360E2A02BE6FEF00F002360E2A02BE3C
:100214006FEF00F002360E2A6FEF00F0010E0C6E45
:100224000EDF22EF01F0020E0C6E16DF22EF01F05A
:10023400040E0C6EF1DE22EF01F0080E0C6EF8DEF7
:020244001200A6
:10024600C7B409D01F0EC514016E0150000A03E1A0
:0A025600010E006E01D0006A1200D4
:10026000F250026EF29E0500FF6A0150FE6E0050D1
:08027000FD6E02BEF28E1200C9
:10027800025006180E6E086A096A0B6A0350076472
:100288002FEF02F006500A6E068E028E03500B6E98
:100298000750036E000E0B647FEF01F00B50075EF2
:1002A800D8B420EF02F0070E0764EEEF01F0075E06
:1002B80000C008F001C000F002C001F0026A074E59
:1002C80020EF02F00764C3EF01F0075E00C008F0FA
:1002D80001C000F0016A074E20EF02F00764A1EFA9
:1002E80001F0075E00C008F0006A074E20EF02F038
:1002F800076488EF01F00AC002F005C001F004C0ED
:1003080000F0086A49EF03F0030E076493EF01F069
:10031800075E08380F0B086E074E20EF02F0D890E2
:100328000832074E20EF02F0D8900832074E20EF2F
:1003380002F0D890083220EF02F0030E0764B2EF03
:1003480001F0075E08380F0B086E0038F00B08261E
:1003580000380F0B006E074E20EF02F0D8900032E5
:100368000832074E20EF02F0D89000320832074ECC
:1003780020EF02F0D8900032083220EF02F0030E8E
:100388000764DAEF01F0075E08380F0B086E0038D3
:10039800F00B082600380F0B006E0138F00B002612
:1003A80001380F0B016E074E20EF02F0D890013292
:1003B80000320832074E20EF02F0D89001320032A6
:1003C8000832074E20EF02F0D8900132003208328E
:1003D80020EF02F0030E07640BEF02F0075E083807
:1003E8000F0B086E0038F00B082600380F0B006E54
:1003F8000138F00B002601380F0B016E0238F00BA4
:10040800012602380F0B026E074E20EF02F0D8903B
:100418000232013200320832074E20EF02F0D89043
:100428000232013200320832074E20EF02F0D89033
:100438000232013200320832096A000E0EAE14EFA1
:1004480003F0081E001E011E021E082A00220122B7
:10045800022214EF03F00750D8A435EF02F049EF59
:1004680003F0096A02C00AF0028E068E0750035C88
:10047800076ED8B407EF03F0070E0764D5EF02F054
:10048800075E0450096E0550046E0650056E066A34
:10049800074E07EF03F0070E0764AAEF02F0075EA6
:1004A8000450096E0550046E056A074E07EF03F005
:1004B800070E076488EF02F0075E0450096E046AAD
:1004C800074E07EF03F0070E07646FEF02F00AC04C
:1004D80002F049EF03F0030E07647AEF02F0075EBB
:1004E80009380F0B096E074E07EF03F0D890093251
:1004F800074E07EF03F0D8900932074E07EF03F0D5
:10050800D890093207EF03F0030E076499EF02F061
:10051800075E09380F0B096E0438F00B09260438FA
:100528000F0B046E074E07EF03F0D8900432093220
:10053800074E07EF03F0D89004320932074E07EF51
:1005480003F0D8900432093207EF03F0030E076472
:10055800C1EF02F0075E09380F0B096E0438F00B83
:10056800092604380F0B046E0538F00B04260538ED
:100578000F0B056E074E07EF03F0D89005320432D3
:100588000932074E07EF03F0D890053204320932DA
:10059800074E07EF03F0D89005320432093207EF0F
:1005A80003F0030E0764F2EF02F0075E09380F0B41
:1005B800096E0438F00B092604380F0B046E053851
:1005C800F00B042605380F0B056E0638F00B0526D0
:1005D80006380F0B066E074E07EF03F0D890063269
:1005E800053204320932074E07EF03F0D89006327D
:1005F800053204320932074E07EF03F0D89006326D
:10060800053204320932086A000E0EAE14EF03F008
:10061800091E041E051E061E092A0422052206229A
:1006280009500826045000220550012206500222D3
:100638000EBE2BEF03F0D8A03AEF03F002320132DE
:1006480000320832033E3AEF03F044EF03F0D8B02B
:100658003FEF03F0000E081E001E011E021E082AAE
:100668000022012202220A7E3FEF03F0010E0C6EE7
:10067800F5DC4BEF03F0020E0C6EF0DC4BEF03F0F1
:10068800040E0C6EC7DC4BEF03F0000E0C6E12006C
:100698000B800BAE58EF03F0026A0AAEFF0E026E33
:0C06A800016E006E0A360232FF0E1200D6
:1006B4000134083609360450085E0550D8A0053CBC
:1006C400095E003601360F0E0C6E01340836093609
:1006D400045000A006D0085E0550D8A0053C095E71
:1006E40005D008260550D8B0053C09260036013649
:1006F4000C2EEBD700B006D0045008260550D8B015
:08070400053C0926000012006B
:10070C009E96B5C0C9FF3FC0B6F040C0B7F041C01F
:10071C00B8F042C0B9F0C7A421D03F5040104110EE
:10072C0042101BE00001B651B711B811B9110EE11E
:10073C005CC0E1FF5DC0E2FF040EE66E5AC000F043
:10074C005BC001F087DD010E006E3AD0010E000196
:10075C00B65F000EB75BB85BB95BDDD73FC0B6F0D8
:10076C0040C0B7F041C0B8F042C0B9F09EB621D03D
:10077C003F504010411042101BE00001B651B71120
:10078C00B811B9110EE15CC0E1FF5DC0E2FF040ECF
:10079C00E66E5AC000F05BC001F05CDD010E006E2D
:1007AC000FD0010E0001B65F000EB75BB85BB95BF2
:1007BC00DDD7C5BC02D0006A03D0C584020E006E22
:0207CC00120019
:0407CE00C5841200CC
:1007D200086A080E0C6E003408360450085ED8B061
:0E07E20002D00826D89000360C2EF5D7120053
:1007F000086A096A000E076203647DEF04F0025084
:1008000006180A6E075003267E0ED8A00EEF04F0DD
:10081000035ED8B082EF04F012EF04F0035ED8A0BC
:1008200087EF04F0028E068E02C00EF001C00BF0BE
:1008300000C00DF000500402F4CF0CF0015005028E
:10084000F4CF00F0F3CF08F00402F3500C26F4507C
:100850000822000E00220D500502F3500C26F45021
:100860000822000E002202500402F3500826F45021
:10087000002202500502016A000E0122F3500026F8
:10088000F45001220D500602F3500826F4500022C5
:10089000026A000E012202220B500602F3500026CB
:1008A000F4500122000E02220E500602F3500126DF
:1008B000F450022202BE65EF04F00836003601361D
:1008C00002360306D8B487EF04F078EF04F0D8803E
:1008D000800E08640030000E002201220222D8A0FF
:1008E00078EF04F0023201320032034A82EF04F062
:1008F0000AAE029E000E8AEF04F0010E1AEC00F020
:100900008AEF04F0020E0EEC00F08AEF04F0040E01
:0609100021EC00F01200D2
:100916000D6A086A0050D8B4000C04180A6E0ABEA4
:100926000D1E0B6A04AE02D0041E042A00AE02D0CD
:10093600001E002A005004100A6E0ABE1FD0045082
:10094600085E003600340836045008260036060EC7
:100956000C6E00340836045000B0085E00A008266D
:1009660000360C2EF6D700A008260BB015D00DAE1B
:10097600000C001E002A081E082A000C04AE09D02E
:1009860000BE04D00050086E006AF1D7006A002A43
:10099600000C001E0B2AD3D7082A0450085CD8A4E2
:0E09A600E6D7086A002A00AEE2D7FF0C120066
:1009B4003FC0B7F040C0B8F041C0B9F042C0BAF08F
:1009C4000001B56BB66BB651120802E1B5518E0841
:1009D40008E337DC005201E004D00001B54BB62B2C
:1009E400F2D70001120EB65D02E18F0EB55D03E38E
:1009F4007B0E006E24D0C580C5A020D03F5040108F
:100A0400411042101AE0B751B811B911BA110EE1F0
:100A14005CC0E1FF5DC0E2FF050EE66E5AC000F067
:100A24005BC001F01BDC010E006E09D0010E000159
:100A3400B75F000EB85BB95BBA5BDED7006A120021
:080A44000B6A0B86FF0E120085
:100A4C000B6A0A6A096A086A0E6A0334083604508B
:100A5C00085E0550D8A0053C095E0650D8A0063C9F
:100A6C000A5E0750D8A0073C0B5EE86AD8A0010EBE
:100A7C000E5E0336070E0C6E0334083609360A3642
:100A8C000B360E36045003A012D0085E0550D8A0C9
:100A9C00053C095E0650D8A0063C0A5E0750D8A05B
:100AAC00073C0B5EE86AD8A0010E0E5E11D008263A
:100ABC000550D8B0053C09260650D8B0063C0A268D
:100ACC000750D8B0073C0B26E86AD8B0010E0E26AA
:100ADC0003360C2ED1D70234083609360A360B36BB
:100AEC000E36045003A012D0085E0550D8A0053C69
:100AFC00095E0650D8A0063C0A5E0750D8A0073CF9
:100B0C000B5EE86AD8A0010E0E5E11D008260550C7
:100B1C00D8B0053C09260650D8B0063C0A2607502A
:100B2C00D8B0073C0B26E86AD8B0010E0E26023668
:100B3C00070E0C6E0234083609360A360B360E36A2
:100B4C00045002A012D0085E0550D8A0053C095EE6
:100B5C000650D8A0063C0A5E0750D8A0073C0B5E96
:100B6C00E86AD8A0010E0E5E11D008260550D8B048
:100B7C00053C09260650D8B0063C0A260750D8B0CA
:100B8C00073C0B26E86AD8B0010E0E2602360C2E56
:100B9C00D1D70134083609360A360B360E360450D6
:100BAC0002A012D0085E0550D8A0053C095E065084
:100BBC00D8A0063C0A5E0750D8A0073C0B5EE86A3A
:100BCC00D8A0010E0E5E11D008260550D8B0053CF9
:100BDC0009260650D8B0063C0A260750D8B0073C68
:100BEC000B26E86AD8B0010E0E260136070E0C6EE5
:100BFC000134083609360A360B360E36045001A07D
:100C0C0012D0085E0550D8A0053C095E0650D8A04D
:100C1C00063C0A5E0750D8A0073C0B5EE86AD8A0D9
:100C2C00010E0E5E11D008260550D8B0053C0926E1
:100C3C000650D8B0063C0A260750D8B0073C0B2605
:100C4C00E86AD8B0010E0E2601360C2ED1D700342E
:100C5C00083609360A360B360E36045001A012D06F
:100C6C00085E0550D8A0053C095E0650D8A0063C8D
:100C7C000A5E0750D8A0073C0B5EE86AD8A0010EAC
:100C8C000E5E11D008260550D8B0053C092606503A
:100C9C00D8B0063C0A260750D8B0073C0B26E86AA9
:100CAC00D8B0010E0E260036070E0C6E0034083636
:100CBC0009360A360B360E36045000A012D0085EE8
:100CCC000550D8A0053C095E0650D8A0063C0A5E2B
:100CDC000750D8A0073C0B5EE86AD8A0010E0E5E48
:100CEC0011D008260550D8B0053C09260650D8B0BE
:100CFC00063C0A260750D8B0073C0B26E86AD8B049
:100D0C00010E0E2600360C2ED1D700B00ED004509A
:100D1C0008260550D8B0053C09260650D8B0063C2C
:0C0D2C000A260750D8B0073C0B26120026
:100D38000B6A0C6A086A0350D8B420EF07F002C0A7
:100D48000AF0028E9E0E035E03AE10EF07F0036CEE
:100D5800080E035CD8A0DDEF06F0036E083600C06D
:100D680008F001C000F002C001F0026A080E035C3E
:100D7800D8A0DDEF06F0036E083600C008F001C009
:100D880000F0016A080E035CD8A0DDEF06F0036EE0
:100D9800083600C008F0006A080E035CD8A0DDEF32
:100DA80006F0036E0836086A0350D8A4D890E9EF15
:100DB80006F00350D8B4E9EF06F0D89002320132B9
:100DC80000320832032EE1EF06F00BBC08A0FAEF60
:100DD80006F0D8A0FAEF06F0082AD8B4002AD8B44A
:100DE800012AD8B4022A02BE24EF07F00AAE20EF87
:100DF80007F0021E011E001E081E082AD8B4002A89
:100E0800D8B4012AD8B4022A20EF07F0026A016A8E
:100E1800006A086A20EF07F00B800BAE2AEF07F094
:100E2800026A0AAE2AEF07F0026E016E006E086EC3
:100E38000A3602322AEF07F00C6A000E2BEF07F091
:100E4800010E0C6E000E24DC2BEF07F0FF0E025093
:100E5800036E0150026E0050016E0850006E1200C1
:100E680003500718D8A448EF07F002500618D8A472
:100E780048EF07F001500518D8A448EF07F00050D4
:0E0E88000418D8B4D8841200D89412001200B6
:100E96000001B051390806E3300EB05D03E3010EE0
:080EA600006E01D0006A120089
:100EAE000001B36BF00EB015B16FB0C0B2F0B23737
:100EBE00B291B237B291B237B291B237B291F00E5F
:100ECE00B21771DD23EC01F04E0E0001B56F17DC89
:100EDE0023EC01F00001B351B111B56FB585B587A3
:100EEE000EDC23EC01F0C70E0D6E0D2EFED70000AA
:100EFE0000000001B351B111B56FB58700DC23ECD2
:100F0E0001F0020E0C6E8D0E0D6E0D2EFED70C2EF8
:100F1E00FCD7000000000001B351B211B56FB585CA
:100F2E00B58786EC03F023EC01F0C70E0D6E0D2E87
:100F3E00FED7000000000001B351B211B56FB587A6
:100F4E0086EC03F023EC01F03BDC0001B051010A0A
:100F5E000AE1200E0C6E290E0D6E0D2EFED70C2EF4
:080F6E00FCD700000000120096
:100F76000A6A0350D8A40A800750D8A40A820A50E5
:100F8600D8B41EEF08F0030AD8B4D7EF07F00AB0BA
:100F9600D2EF07F006AE1CEF08F01AEF08F002AE2B
:100FA6001AEF08F01CEF08F00250800B0A6E029E42
:100FB6000650800B069E0A18D8B4E8EF07F00A50D0
:100FC600D8B41AEF08F01CEF08F00750035CD8B449
:100FD600F2EF07F0D8A00EEF08F014EF08F0065075
:100FE600025CD8B4FCEF07F0D8A00EEF08F014EFBF
:100FF60008F00550015CD8B406EF08F0D8A00EEF53
:1010060008F014EF08F00450005CD8B41EEF08F0A6
:10101600D8B014EF08F00A52D8B41CEF08F01AEF53
:1010260008F00A52D8B41AEF08F01CEF08F0D8807E
:0E1036001200D8901200D880D8841200120048
:101044000B6A0A6A096A00500402F4CF09F0F3CF6C
:1010540008F001500502F4CF0BF0F3CF0AF0005072
:101064000502F3500926F4500A22E86A0B220150C3
:101074000402F3500926F4500A22E86A0B2208C03D
:1010840000F009C001F00AC002F00BC003F0120026
:101094000450000A12E10550000A0FE10650000A4C
:1010A4000CE10750000A09E1FF0E006EFF0E016E0D
:1010B4007F0E026EFF0E036EA7D0086A096A0750FE
:1010C400D8B4F5EF08F00350D8B4F9EF08F00250A3
:1010D40006180A6E028E068E0E6A02C008F001C05F
:1010E4000CF000C00DF004500D5E0550D8A0053C76
:1010F4000C5E0650D8A0063C085E086A0C6A0D6AAD
:10110400D8A08CEF08F0D8900232013200320832B5
:10111400010E0E6E0750035ED8A099EF08F07E0E04
:101124000E240326D8B0FEEF08F09FEF08F07E0EE1
:101134000E240326D8A003EF09F0180E0B6E0D360B
:101144000C3608360036013602360E360450005E80
:101154000550D8A0053C015E0650D8A0063C025EAE
:1011640006340E120EA0BAEF08F00D80C5EF08F099
:10117400045000260550D8B0053C01260650D8B0CE
:10118400062802260D900B2EA1EF08F0EBEF08F0D5
:10119400D8900036013602360E360450005E0550F3
:1011A400D8A0053C015E0650D8A0063C025E063479
:1011B4000E10010B0D26D8B00C2AD8B4082AD8A4D6
:1011C400EBEF08F008320C320D32032AD8B4FEEFEC
:1011D40008F00AAE089E0850026E0C50016E0D50C5
:1011E400006E06EF09F0010E2BDC06EF09F0020E8B
:1011F4001AEC00F006EF09F0040E0EEC00F006EF16
:0A12040009F0080E21EC00F01200C2
:08120E00067E3CEC01F0120029
:101216000450000A08E10550000A05E1FF0E006EC1
:101226007F0E016E58D00D6A096A086A01500010D7
:10123600D8B4000C015005180A6E0ABE0D1E0B6AC2
:1012460005AE05D0041E051E042AD8B4052A01AE33
:1012560005D0001E011E002AD8B4012A015005102F
:101266000A6E0ABE10D05AEC03F00BB020D00DAEB9
:10127600000C001E011E002AD8B4012A081E091EF1
:10128600082AD8B4092A000C05AE0DD001BE07D035
:101296000150096E0050086E016A006AE8D7016ABB
:1012A600006A002A000C011E001E0B2ADDD7082A40
:1012B600D8B4092A0450085CD8A4D9D70550095CCB
:1012C600D8A4D5D7096A086A002AD8B4012A01AE7B
:0812D600CED70000FF0C12004E
:1012DE000B6A0C6A0A6A086A0350D8B4F7EF09F071
:1012EE00028E9E0E035E03BE82EF09F0D8B482EF2B
:1012FE0009F0E7EF09F0036C080E035CD8A0B4EF19
:10130E0009F0036E083600C008F001C000F002C0FC
:10131E0001F0026A080E035CD8A0B4EF09F0036E68
:10132E00083600C008F001C000F0016A080E035C28
:10133E00D8A0B4EF09F0036E083600C008F0006ABA
:10134E00080E035CD8A0B4EF09F0036E0836086AE5
:10135E000350D8A4D890C0EF09F00350D8B4C0EF12
:10136E0009F0D8900232013200320832032EB8EF63
:10137E0009F00BBC08A0D1EF09F0D8A0D1EF09F00D
:10138E00082AD8B4002AD8B4012AD8B4022A02BE38
:10139E00FBEF09F00AAEF7EF09F0021E011E001E68
:1013AE00081E082AD8B4002AD8B4012AD8B4022AB2
:1013BE00F7EF09F0026A016A006A086AF7EF09F0AE
:1013CE000B800BAE01EF0AF0026A0AAE01EF0AF0D3
:1013DE00026E016E006E086E0A36023201EF0AF0DE
:1013EE00000E0C6A02EF0AF0010E0C6E4CEC03F0CC
:1013FE0002EF0AF0FF0E0250036E0150026E005013
:08140E00016E0850006E12008F
:101416006E0E0001B05DD8A0CAD0640E046EB0C0D6
:1014260000F0E9EC03F0120E0024056E066A000EC9
:10143600062205C000F006C001F0000E06BEFF0E33
:10144600026E036E00360090013602360336003611
:101456000090013602360336F90E0024F66E460E6B
:101466000120F76E000E0220F86E0900F5CF00F09D
:101476000900F5CF01F00900F5CF02F00900F5CF1C
:1014860003F0000E046E000E056E000E066E7E0E54
:10149600076EF8EC03F000C0B1F001C0B2F002C074
:1014A600B3F003C0B4F0640E046EB0C000F0E9EC13
:1014B60003F008C000F00A0E046EE9EC03F0090E12
:1014C6000024056E066A000E062205C000F006C05E
:1014D60001F0000E06BEFF0E026E036E003600908F
:1014E60001360236033600360090013602360336E0
:1014F600F90E0024F66E460E0120F76E000E02204D
:10150600F86E0900F5CF00F00900F5CF01F00900EB
:10151600F5CF02F00900F5CF03F0B1C004F0B2C078
:1015260005F0B3C006F0B4C007F0F8EC03F000C055
:10153600B1F001C0B2F002C0B3F003C0B4F00A0EBD
:10154600046EB0C000F0E9EC03F008C000F000C083
:1015560001F0000E026E036E046E01360190023633
:101566000336043601360190023603360436F90E88
:101576000124F66E460E0220F76E000E0320F86E6A
:101586000900F5CF00F00900F5CF01F00900F5CF0D
:1015960002F00900F5CF03F0B1C004F0B2C005F0C7
:1015A600B3C006F0B4C007F0F8EC03F0B1D0B05108
:1015B6000A08D8B07ED00A0E046EB0C000F0E9EC7E
:1015C60003F0090E0024056E066A000E062205C009
:1015D60000F006C001F0000E06BEFF0E026E036E9E
:1015E600003600900136023603360036009001368A
:1015F60002360336F90E0024F66E460E0120F76E0B
:10160600000E0220F86E0900F5CF00F00900F5CFB4
:1016160001F00900F5CF02F00900F5CF03F0000E46
:10162600046E000E056E000E066E7E0E076EF8EC5A
:1016360003F000C0B1F001C0B2F002C0B3F003C0C5
:10164600B4F00A0E046EB0C000F0E9EC03F008C076
:1016560000F000C001F0000E026E036E046E01364B
:1016660001900236033604360136019002360336FF
:101676000436F90E0124F66E460E0220F76E000EB1
:101686000320F86E0900F5CF00F00900F5CF01F050
:101696000900F5CF02F00900F5CF03F0B1C004F060
:1016A600B2C005F0B3C006F0B4C007F0F8EC03F022
:1016B6002FD0B0C000F0000E016E026E036E003631
:1016C60000900136023603360036009001360236A7
:1016D6000336F90E0024F66E460E0120F76E000E54
:1016E6000220F86E0900F5CF00F00900F5CF01F0F1
:1016F6000900F5CF02F00900F5CF03F0000E046EE5
:10170600000E056E000E066E7E0E076EF8EC03F0F8
:021716001200BF
:101718000050086E0150006E0250016E0350026EB8
:10172800036A0B6A0C6A9E0E036E0A6A020E0C6E3E
:0617380032EC00F012008B
:10173E00800E0001B019006E800E000A005CD8B059
:10174E006DD1B0510008016E01C0B0F0800E0118CD
:10175E00006E800E6E0A005CD8A0C0D0640E046EBF
:10176E00B0C000F08BEC04F0120E0024056E000EDB
:10177E0000BEFF0E066E000E062205C000F006C06B
:10178E0001F0000E06BEFF0E026E036E00360090D4
:10179E000136023603360036009001360236033625
:1017AE00F90E0024F66E460E0120F76E000E022092
:1017BE00F86E0900F5CFB1F00900F5CFB2F00900CF
:1017CE00F5CFB3F00900F5CFB4F0640E046EB0C0DF
:1017DE0000F08BEC04F008C000F00A0E046E8BECE7
:1017EE0004F0090E0024056E000E00BEFF0E066EFC
:1017FE00000E062205C000F006C001F0000E06BE67
:10180E00FF0E026E036E003600900136023603366E
:10181E0000360090013602360336F90E0024F66EBD
:10182E00460E0120F76E000E0220F86E0900F5CF6D
:10183E0000F00900F5CF01F00900F5CF02F0090024
:10184E00F5CF03F0B1C004F0B2C005F0B3C006F09E
:10185E00B4C007F0F8EC03F000C0B1F001C0B2F074
:10186E0002C0B3F003C0B4F00A0E046EB0C000F0B4
:10187E008BEC04F008C000F000C001F0000E00BEBA
:10188E00FF0E026E036E046E0136019002360336B1
:10189E00043601360190023603360436F90E012461
:1018AE00F66E460E0220F76E000E0320F86E09004B
:1018BE00F5CF00F00900F5CF01F00900F5CF02F0E9
:1018CE000900F5CF03F0B1C004F0B2C005F0B3C00B
:1018DE0006F0B4C007F0F8EC03F007D2800E0A0A47
:1018EE00006E800EB019005C71E20A0E046EB0C07C
:1018FE0000F08BEC04F0090E0024056E000E00BE05
:10190E00FF0E066E000E062205C000F006C001F0A6
:10191E00000E06BEFF0E026E036E003600900136FC
:10192E000236033600360090013602360336F90EC3
:10193E000024F66E460E0120F76E000E0220F86EA1
:10194E000900F5CFB1F00900F5CFB2F00900F5CFDF
:10195E00B3F00900F5CFB4F00A0E046EB0C000F07B
:10196E008BEC04F008C000F000C001F0000E00BEC9
:10197E00FF0E026E036E046E0136019002360336C0
:10198E00043601360190023603360436F90E012470
:10199E00F66E460E0220F76E000E0320F86E09005A
:1019AE00F5CF00F00900F5CF01F00900F5CF02F0F8
:1019BE000900F5CF03F0B1C004F0B2C005F0B3C01A
:1019CE0006F0B4C007F0F8EC03F08FD1B0C000F011
:1019DE00000EB0BFFF0E016E026E036E0036009059
:1019EE0001360236033600360090013602360336D3
:1019FE00F90E0024F66E460E0120F76E000E022040
:101A0E00F86E0900F5CF00F00900F5CF01F00900DE
:101A1E00F5CF02F00900F5CF03F067D1800EB019B3
:101A2E00006E800E6E0A005CD8A0C0D0640E046EEC
:101A3E00B0C000F08BEC04F0120E0024056E000E08
:101A4E0000BEFF0E066E000E062205C000F006C098
:101A5E0001F0000E06BEFF0E026E036E0036009001
:101A6E000136023603360036009001360236033652
:101A7E002D0E0024F66E470E0120F76E000E02208A
:101A8E00F86E0900F5CFB1F00900F5CFB2F00900FC
:101A9E00F5CFB3F00900F5CFB4F0640E046EB0C00C
:101AAE0000F08BEC04F008C000F00A0E046E8BEC14
:101ABE0004F0090E0024056E000E00BEFF0E066E29
:101ACE00000E062205C000F006C001F0000E06BE94
:101ADE00FF0E026E036E003600900136023603369C
:101AEE00003600900136023603362D0E0024F66EB7
:101AFE00470E0120F76E000E0220F86E0900F5CF9A
:101B0E0000F00900F5CF01F00900F5CF02F0090051
:101B1E00F5CF03F0B1C004F0B2C005F0B3C006F0CB
:101B2E00B4C007F0F8EC03F000C0B1F001C0B2F0A1
:101B3E0002C0B3F003C0B4F00A0E046EB0C000F0E1
:101B4E008BEC04F008C000F000C001F0000E00BEE7
:101B5E00FF0E026E036E046E0136019002360336DE
:101B6E000436013601900236033604362D0E01245A
:101B7E00F66E470E0220F76E000E0320F86E090077
:101B8E00F5CF00F00900F5CF01F00900F5CF02F016
:101B9E000900F5CF03F0B1C004F0B2C005F0B3C038
:101BAE0006F0B4C007F0F8EC03F09FD0800E0A0ADE
:101BBE00006E800EB019005C71E20A0E046EB0C0A9
:101BCE0000F08BEC04F0090E0024056E000E00BE32
:101BDE00FF0E066E000E062205C000F006C001F0D4
:101BEE00000E06BEFF0E026E036E0036009001362A
:101BFE0002360336003600900136023603362D0EBD
:101C0E000024F66E470E0120F76E000E0220F86ECD
:101C1E000900F5CFB1F00900F5CFB2F00900F5CF0C
:101C2E00B3F00900F5CFB4F00A0E046EB0C000F0A8
:101C3E008BEC04F008C000F000C001F0000E00BEF6
:101C4E00FF0E026E036E046E0136019002360336ED
:101C5E000436013601900236033604362D0E012469
:101C6E00F66E470E0220F76E000E0320F86E090086
:101C7E00F5CF00F00900F5CF01F00900F5CF02F025
:101C8E000900F5CF03F0B1C004F0B2C005F0B3C047
:101C9E0006F0B4C007F0F8EC03F027D0B0C000F0A7
:101CAE00000EB0BFFF0E016E026E036E0036009086
:101CBE000136023603360036009001360236033600
:101CCE002D0E0024F66E470E0120F76E000E022038
:101CDE00F86E0900F5CF00F00900F5CF01F009000C
:0C1CEE00F5CF02F00900F5CF03F0120062
:101CFA000001A86BA96B9C6B9D6B8BC000F08CC01C
:101D0A0001F08DC002F0010E8B27000E8C238D236B
:101D1A0000C0F6FF01C0F7FF02C0F8FF0900F5CFC7
:101D2A0000F000C099F00052D8B48BEF1EF0995120
:101D3A00250A0BE089C0E1FF8AC0E2FF99C0E6FFED
:101D4A00894B8A2BA84BA92BD8D79A6B9B6B9C6B78
:101D5A009D6B23D09C87010E8B27000E8C238D232D
:101D6A0059D09C81010E8B27000E8C238D2352D0D3
:101D7A009C83010E8B27000E8C238D234BD09D87CD
:101D8A00010E8B27000E8C238D2344D09C85010ED7
:101D9A008B27000E8C238D233DD08BC0F6FF8CC081
:101DAA00F7FF8DC0F8FF0900F5CF01F001502D0AA9
:101DBA00D1E08BC0F6FF8CC0F7FF8DC0F8FF090099
:101DCA00F5CF01F00150200ACCE08BC0F6FF8CC0A1
:101DDA00F7FF8DC0F8FF0900F5CF01F001502B0A7B
:101DEA00C7E08BC0F6FF8CC0F7FF8DC0F8FF090073
:101DFA00F5CF01F00150230AC2E08BC0F6FF8CC078
:101E0A00F7FF8DC0F8FF0900F5CF01F00150300A45
:101E1A00BDE001D09ED79CA301D09C919CA701D084
:101E2A009C958BC0F6FF8CC0F7FF8DC0F8FF0900A8
:101E3A00F5CF00F0000E016E00C0B0F04BEC07F0D9
:101E4A00005236E09A6B9B6B9AC000F09BC001F07F
:101E5A000A0E046E000E056E22EC08F08BC0F6FF27
:101E6A008CC0F7FF8DC0F8FF0900F5CF02F00250D1
:101E7A0000249A6F000E01209B6F300E9A5F000EAD
:101E8A009B5B010E8B27000E8C238D238BC0F6FFE4
:101E9A008CC0F7FF8DC0F8FF0900F5CF00F0000EE7
:101EAA00016E00C0B0F04BEC07F00052CDE133D028
:101EBA008BC0F6FF8CC0F7FF8DC0F8FF0900F5CF85
:101ECA0001F001502A0A27E18EC0E9FF8FC0EAFF1C
:101EDA00EECF00F0EECF01F000C0E9FF01C0EAFF4B
:101EEA00EECF9AF0EECF9BF08EC0E9FF8FC0EAFFEB
:101EFA00020EEE24006E000EEE20016E8EC0E1FF8F
:101F0A008FC0E2FF00C0E6FF01C0E6FF010E8B278B
:101F1A00000E8C238D238BC0F6FF8CC0F7FF8DC07B
:101F2A00F8FF0900F5CF01F001502E0A70E1010E09
:101F3A008B27000E8C238D238BC0F6FF8CC0F7FFF6
:101F4A008DC0F8FF0900F5CF01F001502A0A28E1F7
:101F5A008EC0E9FF8FC0EAFFEECF00F0EECF01F0AE
:101F6A0000C0E9FF01C0EAFFEECF97F0EECF98F08C
:101F7A008EC0E9FF8FC0EAFF020EEE24006E000E4B
:101F8A00EE20016E8EC0E1FF8FC0E2FF00C0E6FFC7
:101F9A0001C0E6FF010E8B27000E8C238D2336D05D
:101FAA00976B986B8BC0F6FF8CC0F7FF8DC0F8FF5C
:101FBA000900F5CF00F0000E016E00C0B0F04BEC46
:101FCA0007F0005223E097C000F098C001F00A0E13
:101FDA00046E000E056E22EC08F08BC0F6FF8CC072
:101FEA00F7FF8DC0F8FF0900F5CF02F00250002478
:101FFA00976F000E0120986F300E975F000E985B66
:10200A00010E8B27000E8C238D23CCD703D0976B20
:10201A00986B9D898BC000F08CC001F08DC002F0D6
:10202A00010E8B27000E8C238D2300C0F6FF01C002
:10203A00F7FF02C0F8FF0900F5CF99F0F9D0A8C060
:10204A0000F0A9C001F08FEF1EF09C89E3D79D85AF
:10205A002ED19C8B9D812BD19D8329D19C8D27D1FB
:10206A0026D19C8B9C8F23D18EC0E9FF8FC0EAFFBB
:10207A00EECF00F0EECF01F000C0E9FF01C0EAFFA9
:10208A00EECFA4F0EECFA5F08EC0E9FF8FC0EAFF35
:10209A00020EEE24006E000EEE20016E8EC0E1FFED
:1020AA008FC0E2FF00C0E6FF01C0E6FF000EA519DF
:1020BA0002E1000EA41904E1430EA46F000EA56FFD
:1020CA00A66BA76BA651A425E96EA751A521EA6EB6
:1020DA00EE520BE0010EA625006E000EA721016E3E
:1020EA0000C0A6F001C0A7F0EDD7975198110AE0F9
:1020FA00A751985D02E1A651975D04E297C0A6F048
:10210A0098C0A7F09B51A75D02E19A51A65D05E22E
:10211A00A6519A5FA7519B5B02D09A6B9B6B9CB7A7
:10212A0016D09AC000F09BC001F0010E9A5F000E13
:10213A009B5B005001100BE089C0E1FF8AC0E2FFFF
:10214A00200EE66E894B8A2BA84BA92BEAD7A6C08C
:10215A0002F0A7C003F0010EA65D006E000EA7599B
:10216A00016E00C0A6F001C0A7F00250031019E0EA
:10217A00A4C0E9FFA5C0EAFF89C0E1FF8AC0E2FF67
:10218A00EECFE6FF894B8A2B010EA425006E000EC6
:10219A00A521016E00C0A4F001C0A5F0A84BA92B8F
:1021AA00D6D79CA716D09AC000F09BC001F0010EAA
:1021BA009A5F000E9B5B005001100BE089C0E1FFA3
:1021CA008AC0E2FF200EE66E894B8A2BA84BA92B08
:1021DA00EAD793D58EC0E9FF8FC0EAFFEECF00F0B1
:1021EA00EECF01F000C0E9FF01C0EAFFEECF99F09F
:1021FA008EC0E9FF8FC0EAFF020EEE24006E000EC9
:10220A00EE20016E8EC0E1FF8FC0E2FF00C0E6FF44
:10221A0001C0E6FF990EA46F000EA56F010EA66F0E
:10222A00000EA76F62D7C00E9C13000E9D133FD0FD
:10223A009951000AD8B403D799516C0AD8B405D772
:10224A0099514C0AD8B401D79951660AD8B4FFD625
:10225A009951450AD8B4FDD69951650AD8B4FAD627
:10226A009951670AD8B4F8D699516F0AD8B4F6D6F4
:10227A009951640AD8B4F4D69951690AD8B4F0D6F7
:10228A009951700AD8B4EDD69951580AD8B4E9D6FA
:10229A009951780AD8B4E6D69951730AD8B4E4D6D3
:1022AA009951630A97E09951750ABDE0B3D7000EB8
:1022BA009C15006E9D51070B016E00500110D8B499
:1022CA0032EF1AF09DA904D0060E976F000E986F90
:1022DA008EC0E9FF8FC0EAFFEECF00F0EECF01F02B
:1022EA0000C0E9FF01C0EAFFEECF9EF0EECF9FF0FB
:1022FA00EECFA0F0EECFA1F08EC0E9FF8FC0EAFFCB
:10230A00040EEE24006E000EEE20016E8EC0E1FF78
:10231A008FC0E2FF00C0E6FF01C0E6FF046A056A5B
:10232A00066A076A9EC000F09FC001F0A0C002F0D2
:10233A00A1C003F0BBEC07F0010ED8B0000E006E8E
:10234A00005205E0A07F030E9C13000E9D13A26BA2
:10235A00A36B9EC000F09FC001F0A0C002F0A1C014
:10236A0003F0046A056A066A076A34EC07F0000E8D
:10237A00D8A4010E006E0052D8B48AD0A1C000F0D1
:10238A00016A026A036AFF0E0016000E01167E0E2B
:10239A00005E000E015A00C0A2F001C0A3F0010EB7
:1023AA00005E000E015A00C0A2F001C0A3F0030EA5
:1023BA00046E000E056E22EC08F000C0A2F001C007
:1023CA00A3F00A0E046E000E056E0BEC09F000C0B5
:1023DA00A2F001C0A3F0800E0118026E800E025C0A
:1023EA0002E1000E005C05E2010E0001A25F000E90
:1023FA00A35B0001A2510008B06F9FEC0BF09EC0D6
:10240A0004F09FC005F0A0C006F0A1C007F0F8ECE8
:10241A0003F000C0A4F001C0A5F002C0A6F003C0FA
:10242A00A7F0000E046E000E056E000E066E7F0EFB
:10243A00076EA4C000F0A5C001F0A6C002F0A7C0B4
:10244A0003F0BBEC07F0010ED8B0000E006E00528C
:10245A0005E0010EA25F000EA35B1AD0000E046E07
:10246A00000E056E200E066E820E076EA4C000F0E6
:10247A00A5C001F0A6C002F0A7C003F0BBEC07F0AC
:10248A00000ED8B0010E006E005202E0A24BA32B40
:10249A00800E006E800EA319005C02E1A2510008B2
:1024AA0003E3010E996F02D0A2C099F09DB118D032
:1024BA009DA315D0800EA319006E7F0E005C02E169
:1024CA00FC0EA25D0BE3800EA319006E800E981914
:1024DA00005C02E19751A25D01E201D001D0EFD385
:1024EA009751981106E09DA304D0010E975F000E44
:1024FA00985B9851000802E19751080803E2080E18
:10250A00996F02D097C099F09EC000F09FC001F069
:10251A00A0C002F0A1C003F0046A056A066A076A4D
:10252A0034EC07F0000ED8A4010E006E0052D8B4A5
:10253A004BD1A2C0B0F09FEC0BF000C004F001C078
:10254A0005F002C006F003C007F09EC000F09FC06D
:10255A0001F0A0C002F0A1C003F04AEC08F000C0EC
:10256A009EF001C09FF002C0A0F003C0A1F00001DC
:10257A0099510008B06F9FEC0BF000C004F001C045
:10258A0005F002C006F003C007F09EC000F09FC02D
:10259A0001F0A0C002F0A1C003F04AEC08F000C0AC
:1025AA00AAF001C0ABF002C0ACF003C0ADF0AAC003
:1025BA009EF0ABC09FF0ACC0A0F0ADC0A1F0AAC025
:1025CA0000F0ABC001F0ACC002F0ADC003F06FEC9C
:1025DA0009F08CEC0BF000C004F001C005F002C059
:1025EA0006F003C007F0AAC000F0ABC001F0ACC00F
:1025FA0002F0ADC003F007EC09F0000E046E000E05
:10260A00056E000E066E7E0E076EBBEC07F0000E1E
:10261A00D8B0010E006E00521AE09EC000F09FC0B2
:10262A0001F0A0C002F0A1C003F0000E046E000E7B
:10263A00056E000E066E7E0E076E3CEC01F000C0C1
:10264A009EF001C09FF002C0A0F003C0A1F09EC09E
:10265A0000F09FC001F0A0C002F0A1C003F06FEC2F
:10266A0009F000019951010F096E0A6A000E0A2247
:10267A0009C004F00AC005F0000E0ABEFF0E066E7D
:10268A00076E04360490053606360736043604907B
:10269A00053606360736910E0424F66E470E0520D7
:1026AA00F76E000E0620F86E0900F5CF05F0090056
:1026BA00F5CF06F00900F5CF07F00900F5CF08F0CD
:1026CA000850035C08E10750025C05E10650015C12
:1026DA0002E10550005C1EE300019EC000F09FC0AD
:1026EA0001F0A0C002F0A1C003F0CD0E046ECC0E22
:1026FA00056E4C0E066E7B0E076EF8EC03F000C0FA
:10270A009EF001C09FF002C0A0F003C0A1F0A24B4E
:10271A00A32B5AD09EC000F09FC001F0A0C002F0C7
:10272A00A1C003F06FEC09F099C004F0000E056E29
:10273A00066E076E043604900536063607360436EA
:10274A000490053606360736910E0424F66E470EB7
:10275A000520F76E000E0620F86E0900F5CF05F089
:10276A000900F5CF06F00900F5CF07F00900F5CF0B
:10277A0008F00850035C08E10750025C05E10650C6
:10278A00015C02E10550005C1FE200019EC000F0FE
:10279A009FC001F0A0C002F0A1C003F0000E046EB9
:1027AA00000E056E200E066E820E076EF8EC03F020
:1027BA0000C09EF001C09FF002C0A0F003C0A1F0CB
:1027CA00010EA25F000EA35B00019DA393D09DB7EB
:1027DA0091D0800E000A006E800E9819005C02E10A
:1027EA0097510A0804E20A0E976F000E986F9EC06E
:1027FA0000F09FC001F0A0C002F0A1C003F06FEC8E
:10280A0009F000C0A4F001C0A5F002C0A6F003C000
:10281A00A7F0A451A511A611A71142E00A0E046E51
:10282A00000E056E066E076EA4C000F0A5C001F08A
:10283A00A6C002F0A7C003F026EC05F008C000F01D
:10284A0009C001F00AC002F00BC003F0000E046ECA
:10285A00031808E10450021805E10450011802E1C6
:10286A000050000A1DE1010E975F000E985B0A0EE8
:10287A00046E000E056E066E076EA4C000F0A5C0B9
:10288A0001F0A6C002F0A7C003F026EC05F000C0D4
:10289A00A4F001C0A5F002C0A6F003C0A7F0B9D702
:1028AA00800E9819006E800E005C02E19951975DC6
:1028BA0021E29751995DB06F9FEC0BF000C004F0D4
:1028CA0001C005F002C006F003C007F09EC000F088
:1028DA009FC001F0A0C002F0A1C003F04AEC08F0CA
:1028EA0000C09EF001C09FF002C0A0F003C0A1F09A
:1028FA0097C099F0050E00019725006E000E9821E9
:10290A00016E00509A5F01509B5B9751981103E149
:10291A009DB701D004D0010E9A5F000E9B5B030E97
:10292A009C15006E9DC001F0000E011600500110AA
:10293A0004E0010E9A5F000E9B5B9CA539D09CA314
:10294A0012D09CA103D02D0E606F02D02B0E606FA7
:10295A0089C0E1FF8AC0E2FF60C0E6FF894B8A2B8B
:10296A00A84BA92B0CD09CA10AD089C0E1FF8AC030
:10297A00E2FF200EE66E894B8A2BA84BA92B800E0C
:10298A00006E800E9B19005C02E19A5100080FE26A
:10299A0089C0E1FF8AC0E2FF300EE66E894B8A2BBE
:1029AA00A84BA92B010E9A5F000E9B5BE8D73AD081
:1029BA009CB718D0800E006E800E9B19005C02E155
:1029CA009A5100080FE289C0E1FF8AC0E2FF200E97
:1029DA00E66E894B8A2BA84BA92B010E9A5F000E33
:1029EA009B5BE8D79CA312D09CA103D02D0E906FBD
:1029FA0002D02B0E906F89C0E1FF8AC0E2FF90C01F
:102A0A00E6FF894B8A2BA84BA92B0CD09CA10AD094
:102A1A0089C0E1FF8AC0E2FF200EE66E894B8A2B4D
:102A2A00A84BA92B9EC000F09FC001F0A0C002F0E5
:102A3A00A1C003F06FEC09F000C0A4F001C0A5F03A
:102A4A0002C0A6F003C0A7F099C000F0000E016E04
:102A5A00026E036E003600900136023603360036E7
:102A6A000090013602360336910E0024F66E470EA8
:102A7A000120F76E000E0220F86E0900F5CF04F06F
:102A8A000900F5CF05F00900F5CF06F00900F5CFEA
:102A9A0007F0A4C000F0A5C001F0A6C002F0A7C0CC
:102AAA0003F026EC05F0300E002689C0E1FF8AC04B
:102ABA00E2FF00C0E6FF894B8A2BA84BA92B97514E
:102ACA00981103E19DB701D06FD089C0E1FF8AC098
:102ADA00E2FF2E0EE66E894B8A2BA84BA92B995141
:102AEA00975F000E985B99534DE0990799C000F0E3
:102AFA00000E016E026E036E003600900136023639
:102B0A00033600360090013602360336910E002451
:102B1A00F66E470E0120F76E000E0220F86E0900CD
:102B2A00F5CF04F00900F5CF05F00900F5CF06F05E
:102B3A000900F5CF07F0A4C000F0A5C001F0A6C0B7
:102B4A0002F0A7C003F026EC05F00A0E046E000E90
:102B5A00056E066E076E26EC05F008C000F009C087
:102B6A0001F00AC002F00BC003F0300E002689C043
:102B7A00E1FF8AC0E2FF00C0E6FF894B8A2BA84B1F
:102B8A00A92BB1D7975198110FE089C0E1FF8AC0EC
:102B9A00E2FF300EE66E894B8A2BA84BA92B010E59
:102BAA00975F000E985BEED79CAB0BD089C0E1FF14
:102BBA008AC0E2FF450EE66E894B8A2BA84BA92BE9
:102BCA000AD089C0E1FF8AC0E2FF650EE66E894B32
:102BDA008A2BA84BA92B800EA319006E800E005CCD
:102BEA0002E1000EA25D11E2A2510008A26FA351F8
:102BFA00000EA35789C0E1FF8AC0E2FF2D0EE66EE0
:102C0A00894B8A2BA84BA92B0AD089C0E1FF8AC01D
:102C1A00E2FF2B0EE66E894B8A2BA84BA92B0A0ED4
:102C2A00046E000E056EA2C000F0A3C001F00BEC0A
:102C3A0009F0300E002689C0E1FF8AC0E2FF00C019
:102C4A00E6FF0001894B8A2BA84BA92B0A0E046EBA
:102C5A00000E056EA2C000F0A3C001F00BEC09F053
:102C6A0008C000F009C001F0300E002689C0E1FF5B
:102C7A008AC0E2FF00C0E6FF0001894B8A2BA84BFD
:102C8A00A92B9CA71AD0800E006E800E9B19005C9F
:102C9A0002E19A51000811E289C0E1FF8AC0E2FF0D
:102CAA00200EE66E894B8A2BA84BA92B010E9A5F40
:102CBA00000E9B5B9A519B11EFE182EF0EF09DA3F0
:102CCA00F3D0800EA319006E800E005C02E1000EA4
:102CDA00A25D0AE2010EA25D006E000EA359016E0A
:102CEA000050975F0150985B9EC000F09FC001F0B2
:102CFA00A0C002F0A1C003F06FEC09F000C0A4F07C
:102D0A0001C0A5F002C0A6F003C0A7F0010E996F9A
:102D1A0099510A0A34E099C000F0000E016E026E61
:102D2A00036E0036009001360236033600360090F4
:102D3A00013602360336910E0024F66E470E012044
:102D4A00F76E000E0220F86E0900F5CF01F00900B7
:102D5A00F5CF02F00900F5CF03F00900F5CF04F032
:102D6A000450A75D08E10350A65D05E10250A55D88
:102D7A0002E10150A45D01E202D0992BC9D7995111
:102D8A00975DAE6F000E9859AF6FAEC097F0AFC0A7
:102D9A0098F0A4C000F0A5C001F0A6C002F0A7C038
:102DAA0003F08CEC0BF000C004F001C005F002C087
:102DBA0006F003C007F09EC000F09FC001F0A0C05B
:102DCA0002F0A1C003F007EC09F000C0AAF001C0AC
:102DDA00ABF002C0ACF003C0ADF0AEC0B0F09FECF7
:102DEA000BF0AAC004F0ABC005F0ACC006F0ADC051
:102DFA0007F0F8EC03F0000E046E000E056E000EEC
:102E0A00066E7E0E076E3CEC01F06FEC09F000C016
:102E1A00A4F001C0A5F002C0A6F003C0A7F0975124
:102E2A00981142E00A0E046E000E056E066E076ED9
:102E3A00A4C000F0A5C001F0A6C002F0A7C003F02C
:102E4A0026EC05F008C000F009C001F00AC002F043
:102E5A000BC003F0000E046E031808E104500218B8
:102E6A0005E10450011802E10050000A1DE10A0EB2
:102E7A00046E000E056E066E076EA4C000F0A5C0B3
:102E8A0001F0A6C002F0A7C003F026EC05F000C0CE
:102E9A00A4F001C0A5F002C0A6F003C0A7F0010E7D
:102EAA00975F000E985BBBD7800E006E800E981954
:102EBA00005C02E197510C0816E397C0B0F00BECE6
:102ECA000AF09EC004F09FC005F0A0C006F0A1C0A1
:102EDA0007F03CEC01F000C09EF001C09FF002C078
:102EEA00A0F003C0A1F09EC000F09FC001F0A0C0F6
:102EFA0002F0A1C003F0046A056A066A076A34ECA4
:102F0A0007F0000ED8A4010E006E0052D8B477D094
:102F1A009EC000F09FC001F0A0C002F0A1C003F063
:102F2A006FEC09F0000E046E031808E10450021851
:102F3A0005E10450011802E10050000A60E1800E28
:102F4A00006E800EA319005C02E1A251010857E24B
:102F5A00A2C0B0F09FEC0BF000C004F001C005F075
:102F6A0002C006F003C007F09EC000F09FC001F047
:102F7A00A0C002F0A1C003F04AEC08F05F0E046E94
:102F8A00700E056E090E066E810E076EBBEC07F019
:102F9A00010ED8B0000E006E005206E0090E0001C4
:102FAA00A25F000EA35B05D00001080EA25F000E0F
:102FBA00A35BA2C0B0F09FEC0BF000C004F001C00C
:102FCA0005F002C006F003C007F09EC000F09FC0E3
:102FDA0001F0A0C002F0A1C003F04AEC08F06FECC7
:102FEA0009F000C0A4F001C0A5F002C0A6F003C019
:102FFA00A7F000019E6B9F6BA06BA16B38D09EC09F
:10300A0000F09FC001F0A0C002F0A1C003F06FEC75
:10301A0009F000C0A4F001C0A5F002C0A6F003C0E8
:10302A00A7F0A4C000F0A5C001F0A6C002F0A7C096
:10303A0003F08CEC0BF000C004F001C005F002C0F4
:10304A0006F003C007F09EC000F09FC001F0A0C0C8
:10305A0002F0A1C003F007EC09F000C09EF001C025
:10306A009FF002C0A0F003C0A1F0A26BA36B010EF7
:10307A00996F99510A0A34E099C000F0000E016E66
:10308A00026E036E003600900136023603360036B1
:10309A000090013602360336910E0024F66E470E72
:1030AA000120F76E000E0220F86E0900F5CF01F03C
:1030BA000900F5CF02F00900F5CF03F00900F5CFBA
:1030CA0004F00450A75D08E10350A65D05E1025033
:1030DA00A55D02E10150A45D01E202D0992BC9D796
:1030EA0099519725006E000E9821016EA251002673
:1030FA00A351012200509A5F01509B5B9DB704D0F7
:10310A009751981101E104D0010E9A5F000E9B5B62
:10311A00030E9C15006E9DC001F0000E01160050B2
:10312A00011004E0010E9A5F000E9B5B9CA539D04A
:10313A009CA312D09CA103D02D0E916F02D02B0E0E
:10314A00916F89C0E1FF8AC0E2FF91C0E6FF894B17
:10315A008A2BA84BA92B0CD09CA10AD089C0E1FFCD
:10316A008AC0E2FF200EE66E894B8A2BA84BA92B58
:10317A00800E006E800E9B19005C02E19A510008D5
:10318A000FE289C0E1FF8AC0E2FF300EE66E894B8A
:10319A008A2BA84BA92B010E9A5F000E9B5BE8D7DE
:1031AA003AD09CB718D0800E006E800E9B19005C36
:1031BA0002E19A5100080FE289C0E1FF8AC0E2FFEA
:1031CA00200EE66E894B8A2BA84BA92B010E9A5F1B
:1031DA00000E9B5BE8D79CA312D09CA103D02D0EB6
:1031EA00926F02D02B0E926F89C0E1FF8AC0E2FF74
:1031FA0092C0E6FF894B8A2BA84BA92B0CD09CA125
:10320A000AD089C0E1FF8AC0E2FF200EE66E894B30
:10321A008A2BA84BA92B99C000F0990700524CE0C1
:10322A0099C000F0000E016E026E036E0036009027
:10323A00013602360336003600900136023603366E
:10324A00910E0024F66E470E0120F76E000E022042
:10325A00F86E0900F5CF04F00900F5CF05F0090072
:10326A00F5CF06F00900F5CF07F0A4C000F0A5C01D
:10327A0001F0A6C002F0A7C003F026EC05F00A0E82
:10328A00046E000E056E066E076E26EC05F008C089
:10329A0000F009C001F00AC002F00BC003F0300EC2
:1032AA00002689C0E1FF8AC0E2FF00C0E6FF894B21
:1032BA008A2BA84BA92BAFD7800E006E800EA319BC
:1032CA00005C02E1A25100080FE289C0E1FF8AC056
:1032DA00E2FF300EE66E894B8A2BA84BA92B010E12
:1032EA00A25F000EA35BE8D7800E000A006E800E74
:1032FA009819005C02E19751080803E2080E996FD9
:10330A0002D097C099F09951975F000E985B995334
:10331A0003E19DB701D00AD089C0E1FF8AC0E2FF6C
:10332A002E0EE66E894B8A2BA84BA92B99C0B0F0BA
:10333A009FEC0BF09EC004F09FC005F0A0C006F001
:10334A00A1C007F0F8EC03F09CEC06F000C0A4F072
:10335A0001C0A5F002C0A6F003C0A7F099534DE042
:10336A00990799C000F0000E016E026E036E0036D6
:10337A0000900136023603360036009001360236D6
:10338A000336910E0024F66E470E0120F76E000EEA
:10339A000220F86E0900F5CF04F00900F5CF05F018
:1033AA000900F5CF06F00900F5CF07F0A4C000F038
:1033BA00A5C001F0A6C002F0A7C003F026EC05F0F4
:1033CA000A0E046E000E056E066E076E26EC05F0F8
:1033DA0008C000F009C001F00AC002F00BC003F0F7
:1033EA00300E002689C0E1FF8AC0E2FF00C0E6FF76
:1033FA00894B8A2BA84BA92BB1D7975198110FE06B
:10340A0089C0E1FF8AC0E2FF300EE66E894B8A2B43
:10341A00A84BA92B010E975F000E985BEED79CA7CD
:10342A001AD0800E006E800E9B19005C02E19A5140
:10343A00000811E289C0E1FF8AC0E2FF200EE66EB1
:10344A00894B8A2BA84BA92B010E9A5F000E9B5B16
:10345A009A519B11EFE182EF0EF0C00E9C15016E9E
:10346A009DC002F0000E0216000E021802E1000EC4
:10347A000118D8A480D09CA927D08EC0E9FF8FC09C
:10348A00EAFFEECF00F0EECF01F000C0E9FF01C085
:10349A00EAFFEECFA4F0EECFA5F0EECFA6F0EECF86
:1034AA00A7F08EC0E9FF8FC0EAFF040EEE24006E7B
:1034BA00000EEE20016E8EC0E1FF8FC0E2FF00C059
:1034CA00E6FF01C0E6FF2FD08EC0E9FF8FC0EAFFFA
:1034DA00EECF00F0EECF01F000C0E9FF01C0EAFF35
:1034EA00EECF00F0EECF01F0000E01BEFF0E026E2D
:1034FA00036E00C0A4F001C0A5F002C0A6F003C08C
:10350A00A7F08EC0E9FF8FC0EAFF020EEE24006E1C
:10351A00000EEE20016E8EC0E1FF8FC0E2FF00C0F8
:10352A00E6FF01C0E6FF800EA719006E800E005C60
:10353A0008E1000EA65D05E1000EA55D02E1000EA0
:10354A00A45D18E2030E9C13000E9D13006A016A23
:10355A00026A036AA451005EA551015AA651025A91
:10356A00A751035A00C0A4F001C0A5F002C0A6F0FA
:10357A0003C0A7F04ED09CA927D08EC0E9FF8FC008
:10358A00EAFFEECF00F0EECF01F000C0E9FF01C084
:10359A00EAFFEECFA4F0EECFA5F0EECFA6F0EECF85
:1035AA00A7F08EC0E9FF8FC0EAFF040EEE24006E7A
:1035BA00000EEE20016E8EC0E1FF8FC0E2FF00C058
:1035CA00E6FF01C0E6FF25D08EC0E9FF8FC0EAFF03
:1035DA00EECF00F0EECF01F000C0E9FF01C0EAFF34
:1035EA00EECFA4F0EECFA5F0000EA66FA76F8EC0A7
:1035FA00E9FF8FC0EAFF020EEE24006E000EEE20F5
:10360A00016E8EC0E1FF8FC0E2FF00C0E6FF01C07D
:10361A00E6FF000E981902E1000E97190FE1000E5D
:10362A00006EA71908E10050A61905E10050A51976
:10363A0002E1A451000A02E1974B982BC00E9C1597
:10364A00006E00C005F0AED0010E996F99510A0ABA
:10365A0034E099C000F0000E016E026E036E00366F
:10366A0000900136023603360036009001360236E3
:10367A000336910E0024F66E470E0120F76E000EF7
:10368A000220F86E0900F5CF01F00900F5CF02F02B
:10369A000900F5CF03F00900F5CF04F00450A75D47
:1036AA0008E10350A65D05E10250A55D02E1015063
:1036BA00A45D01E202D0992BC9D782D0010E996F7D
:1036CA009951080A34E099C000F0000E016E026EAA
:1036DA00036E00360090013602360336003600903B
:1036EA00013602360336B90E0024F66E470E012063
:1036FA00F76E000E0220F86E0900F5CF01F00900FE
:10370A00F5CF02F00900F5CF03F00900F5CF04F078
:10371A000450A75D08E10350A65D05E10250A55DCE
:10372A0002E10150A45D01E202D0992BC9D748D029
:10373A00010E996F99510C0A34E099C000F0000EFD
:10374A00016E026E036E00360090013602360336B1
:10375A0000360090013602360336610E0024F66EFA
:10376A00470E0120F76E000E0220F86E0900F5CF11
:10377A0001F00900F5CF02F00900F5CF03F00900C6
:10378A00F5CF04F00450A75D08E10350A65D05E1FA
:10379A000250A55D02E10150A45D01E202D0992B1D
:1037AA00C9D70ED00550000AD8B44ED70550C00A62
:1037BA00D8B44AD70550800A81E00550400AB8E0DB
:1037CA00800E006E800E9819005C02E19751995D97
:1037DA0003E297C099F00DD0800E9819006E800E02
:1037EA00005C02E19951975D04E299C097F0000EDE
:1037FA00986F9A519B110EE0030E9C15006E9DC0A6
:10380A0001F0000E01160050011004E0010E9A5F4B
:10381A00000E9B5B800E9819006E800E9B19005C4F
:10382A0002E19A51975D05E297519A5F98519B5B25
:10383A0002D09A6B9B6BC40E9C15016E9D51080BAE
:10384A00026E0250080A02E1400E011808E19A517C
:10385A009B1104E0010E9A5F000E9B5B1CD0C00E08
:10386A009C15016E9D51080B026E0250080A02E176
:10387A00800E011810E1800E006E800E9B19005C0C
:10388A0002E19A51020805E2020E9A5F000E9B5B62
:10389A0002D09A6B9B6B9CA55DD09CA312D09CA175
:1038AA0003D02D0E936F02D02B0E936F89C0E1FFC8
:1038BA008AC0E2FF93C0E6FF894B8A2BA84BA92B4B
:1038CA0034D09CA10BD089C0E1FF8AC0E2FF200E50
:1038DA00E66E894B8A2BA84BA92B27D0C00E9C15C4
:1038EA00016E9D51080B026E0250080A02E1800E19
:1038FA0001181BE189C0E1FF8AC0E2FF300EE66EC3
:10390A00894B8A2BA84BA92B9CAB03D0580E946FDA
:10391A0002D0780E946F89C0E1FF8AC0E2FF94C09A
:10392A00E6FF894B8A2BA84BA92B9A519B1111E0D0
:10393A0089C0E1FF8AC0E2FF300EE66E894B8A2B0E
:10394A00A84BA92B010E9A5F000E9B5B9A519B1103
:10395A00EFE174D09A519B1113E09CB711D089C042
:10396A00E1FF8AC0E2FF200EE66E894B8A2BA84B44
:10397A00A92B010E9A5F000E9B5B9A519B11EFE1F6
:10398A009CA312D09CA103D02D0E956F02D02B0EB2
:10399A00956F89C0E1FF8AC0E2FF95C0E6FF894BB7
:1039AA008A2BA84BA92B0CD09CA10AD089C0E1FF75
:1039BA008AC0E2FF200EE66E894B8A2BA84BA92B00
:1039CA00C00E9C15016E9D51080B026E0250080A2A
:1039DA0002E1400E01180BE189C0E1FF8AC0E2FF53
:1039EA00300EE66E894B8A2BA84BA92B27D0C00E26
:1039FA009C15016E9D51080B026E0250080A02E1E5
:103A0A00800E01181BE189C0E1FF8AC0E2FF300E77
:103A1A00E66E894B8A2BA84BA92B9CAB03D0580E78
:103A2A00966F02D0780E966F89C0E1FF8AC0E2FFD6
:103A3A0096C0E6FF894B8A2BA84BA92B800E006EF5
:103A4A00800E9819005C02E19751995D0BE289C0DA
:103A5A00E1FF8AC0E2FF300EE66E894B8A2BA84B43
:103A6A00A92BECD797C000F098C001F0010E975F20
:103A7A00000E985B00500110D8B42AD1C00E9C15D4
:103A8A00006E00C0AAF00AD197C000F098C001F0F9
:103A9A00000E98BFFF0E026E036E003600900136CC
:103AAA000236033600360090013602360336910E8E
:103ABA000024F66E470E0120F76E000E0220F86E03
:103ACA000900F5CF04F00900F5CF05F00900F5CF9C
:103ADA0006F00900F5CF07F0A4C000F0A5C001F078
:103AEA00A6C002F0A7C003F026EC05F00A0E046E89
:103AFA00000E056E066E076E26EC05F008C000F093
:103B0A0009C001F00AC002F00BC003F0300E002415
:103B1A00996FD3D09CAB45D097C000F098C001F004
:103B2A00000E98BFFF0E026E036E0036009001363B
:103B3A000236033600360090013602360336B90ED5
:103B4A000024F66E470E0120F76E000E0220F86E72
:103B5A000900F5CF04F00900F5CF05F00900F5CF0B
:103B6A0006F00900F5CF07F0A4C000F0A5C001F0E7
:103B7A00A6C002F0A7C003F026EC05F00F0E00164F
:103B8A00000E011602160316EA0E0024F66E470E00
:103B9A000120F76E000E0220F86E0900F5CF99F0A9
:103BAA0044D097C000F098C001F0000E98BFFF0EF5
:103BBA00026E036E00360090013602360336003676
:103BCA000090013602360336B90E0024F66E470E0F
:103BDA000120F76E000E0220F86E0900F5CF04F0FE
:103BEA000900F5CF05F00900F5CF06F00900F5CF79
:103BFA0007F0A4C000F0A5C001F0A6C002F0A7C05B
:103C0A0003F026EC05F00F0E0016000E0116021640
:103C1A000316D90E0024F66E470E0120F76E000E29
:103C2A000220F86E0900F5CF99F047D097C000F04E
:103C3A0098C001F0000E98BFFF0E026E036E0036A8
:103C4A0000900136023603360036009001360236FD
:103C5A000336610E0024F66E470E0120F76E000E41
:103C6A000220F86E0900F5CF04F00900F5CF05F03F
:103C7A000900F5CF06F00900F5CF07F0A4C000F05F
:103C8A00A5C001F0A6C002F0A7C003F026EC05F01B
:103C9A00070E0014996F300E99270FD0AA51000A07
:103CAA00D8B4F2D6AA51C00AD8B4EED6AA51800A1C
:103CBA00D8B430D7AA51400AB9E089C0E1FF8AC016
:103CCA00E2FF99C0E6FF894B8A2BA84BA92BCAD6DB
:103CDA009CA71AD0800E006E800E9B19005C02E130
:103CEA009A51000811E289C0E1FF8AC0E2FF200E62
:103CFA00E66E894B8A2BA84BA92B010E9A5F000E00
:103D0A009B5B9A519B11EFE182EF0EF0A8C000F085
:063D1A00A9C001F0120037
:103D2000010E00018D6F20D08A05006E0050800FBB
:103D3000B06F57EC07F024D08A05006E0050C00F1A
:103D4000B06F57EC07F01CD08A05006E0050940F3E
:103D5000B06F57EC07F014D08A05006E0050D40FF6
:103D6000B06F57EC07F00CD08951010ADDE08951A2
:103D7000020AE2E08951030AE7E08951040AECE013
:103D8000F00E8B15606F8BC08CF08C378C918C375C
:103D90008C918C378C918C378C91F00E8C17DAECDF
:103DA00004F023EC01F04E0E0001B56F86EC03F039
:103DB00023EC01F000018D516011B56FB585B58719
:103DC00086EC03F023EC01F0C70E0D6E0D2EFED72E
:103DD0000000000000018D516011B56FB58786ECC1
:103DE00003F023EC01F0020E0C6E8D0E0D6E0D2E05
:103DF000FED70C2EFCD70000000000018D518C1165
:103E0000B56FB585B58786EC03F023EC01F0C70EDE
:103E10000D6E0D2EFED70000000000018D518C119B
:103E2000B56FB58786EC03F023EC01F0E7EC03F007
:023E300012007E
:103E32000C0E026E89C000F08AC001F0025005E04B
:103E420001320032019EFF0FFAD7E80E046E030E14
:103E5200056E22EC08F000C08BF001C08CF0000E61
:103E620000018915036E8A510F0B046E04C000F025
:103E7200016A640E046E000E056E22EC08F000501A
:103E82008B2701508C23F00E8915036E8AC004F033
:103E9200000E041603C000F004C001F0013200322B
:103EA200019E01320032019E01320032019E013236
:103EB2000032019E0A0E046E000E056E22EC08F01E
:103EC20000508B25026E01508C21036E0F0E891556
:103ED200006E8AC001F0000E011602500026035047
:043EE20001221200A7
:103EE6003FC089F040C08AF041C08BF042C08CF0E0
:103EF600C582C5A220D03F504010411042101AE0A2
:103F0600000189518A118B118C110DE15CC0E1FF12
:103F16005DC0E2FF060EE66E5AC000F05BC001F01F
:103F260030EC01F008D0010E0001895F000E8A5BBB
:083F36008B5B8C5BDED71200EF
:103F3E000001896B605109081DE20A0E046E60C013
:103F4E0000F0E9EC03F000C089F000C089F0893779
:103F5E0089918937899189378991893789910A0E93
:103F6E00046E60C000F0E9EC03F008C000F00050F1
:0E3F7E00891302D060C089F089C000F01200E3
:103F8C003FC08AF040C08BF041C08CF042C08DF035
:103F9C009E96C5869EB620D03F50401041104210D0
:103FAC001AE000018A518B118C118D110DE15CC04E
:103FBC00E1FF5DC0E2FF030EE66E5AC000F05BC08D
:103FCC0001F030EC01F008D0010E00018A5F000E08
:103FDC008B5B8C5B8D5BDED70001C9CF89F06051A8
:103FEC00000A02E1C58A01D0C59A9E96C5883FC0D9
:103FFC008AF040C08BF041C08CF042C08DF09EB670
:10400C0020D03F504010411042101AE000018A515C
:10401C008B118C118D110DE15CC0E1FF5DC0E2FFD5
:10402C00030EE66E5AC000F05BC001F030EC01F0FC
:10403C0008D0010E00018A5F000E8B5B8C5B8D5BE0
:08404C00DED789C000F012006C
:10405400810E0001876F000E886F7CC089F07DC0DF
:104064008AF07EC08BF07FC08CF080C08DF0870E0C
:104074008E6F000E8F6F7DEC0EF000C05EF001C0FD
:104084005FF000507C25E16E01507D21E26EE66A0E
:0A4094005EC000F05FC001F01200F2
:10409E00DAEC04F0D00E0001B56F86EC03F00001EF
:1040AE00B56B86EC03F018DFD10E0001B56F86EC10
:1040BE0003F05EC07CF05FC07DF0010E0001606F0A
:1040CE005EDF00C089F0000E00018A6FABDE7CC09F
:1040DE00E1FF7DC0E2FF00C0E6FF010E5E247C6FB3
:1040EE00000E5F207D6F010E606F49DF00C089F00A
:1040FE00000E00018A6F96DE7CC0E1FF7DC0E2FFFC
:10410E0000C0E6FF020E5E247C6F000E5F207D6F06
:10411E00010E606F34DF00C089F0000E00018A6F5F
:10412E0081DE7CC0E1FF7DC0E2FF00C0E6FF030E32
:10413E005E247C6F000E5F207D6F010E606F1FDFAF
:10414E0000C089F0000E00018A6F6CDE7CC0E1FFBA
:10415E007DC0E2FF00C0E6FF040E5E247C6F000E01
:10416E005F207D6F010E606F0ADF00C089F0000EC8
:10417E0000018A6F57DE7CC0E1FF7DC0E2FF00C008
:10418E00E6FF050E5E247C6F000E5F207D6F010E34
:10419E00606FF5DE00C089F0000E00018A6F42DE0E
:1041AE007CC0E1FF7DC0E2FF00C0E6FF060E5E248C
:1041BE007C6F000E5F207D6F606BE1DE00C089F0CA
:1041CE00000E00018A6F2EDE7CC0E1FF7DC0E2FF93
:0A41DE0000C0E6FFE7EC03F012005A
:1041E800DAEC04F0D00E0001B56F86EC03F00001A4
:1041F800B56B86EC03F05EC0E9FF5FC0EAFFEECF67
:1042080060F099DE00C0B5F086EC03F0010E5E2484
:10421800E96E000E5F20EA6EEECF60F08CDE00C023
:10422800B5F086EC03F0020E5E24E96E000E5F2006
:10423800EA6EEECF60F07FDE00C0B5F086EC03F0EA
:10424800030E5E24E96E000E5F20EA6EEECF60F08A
:1042580072DE00C0B5F086EC03F0040E5E24E96E51
:10426800000E5F20EA6EEECF60F065DE00C0B5F0AC
:1042780086EC03F0050E5E24E96E000E5F20EA6E00
:10428800EECF60F058DE00C0B5F086EC03F0060E05
:104298005E24E96E000E5F20EA6EEECF60F04BDE22
:1042A80000C0B5F086EC03F0110E0001B56F86EC86
:0842B80003F0E7EC03F0120033
:1042C0007EC0E9FF7FC0EAFFEE5210E07CC089F0BB
:1042D0007DC08AF07EC0E9FF7FC0EAFFEECF8BF0A1
:0E42E0001FDD00017D2B7E4B7F2BEAD71200E5
:1042EE00460E566E020E576E000E586E000E596E2A
:1042FE00B40E0001656F090E666F000E676F000E3B
:10430E00686FE60E616F3E0E626F000E636F000EF9
:10431E00646F8C0E4E6E3F0E4F6E600E506E000E22
:10432E00516E0C0E4A6E070E4B6EB50E4C6E000E95
:10433E004D6ECE0E526E070E536E000E546E000E64
:10434E00556E939093928A908A9293809382C79E91
:08435E00C79C380EC66E120068
:104366000900F5CFE6FF0006FBE10106F9E11200C0
:1043760000017C6B7D6B5EC003F05FC004F05EC025
:1043860005F05FC006F003C0E9FF04C0EAFFEE5087
:10439600200A04E17C517D1101E110D0010E7C6FF1
:1043A600000E7D6F03C0E9FF04C0EAFF05C0E1FF10
:1043B60006C0E2FFEECFE6FF054A062A03C001F07B
:1043C60004C002F0034A042A01C0E9FF02C0EAFF62
:1043D600EE50000AD8E15EC000F05FC001F01200A6
:1043E6005E6ADAEC04F023EC01F04E0E0001B56FC4
:1043F60086EC03F023EC01F02F0E0C6EBF0E0D6E53
:104406000D2EFED70C2EFCD700000000300E5E10DD
:104416000001B56FB585B58786EC03F023EC01F096
:10442600C70E0D6E0D2EFED700000000300E5E107A
:104436000001B56FB58786EC03F023EC01F0100E92
:104446000C6E940E0D6E0D2EFED70C2EFCD70000B2
:10445600300E5E100001B56FB585B58786EC03F0AA
:1044660023EC01F0C70E0D6E0D2EFED700000000E6
:10447600300E5E100001B56FB58786EC03F023ECB5
:1044860001F0100E0C6E940E0D6E0D2EFED70C2E36
:10449600FCD70000300E5E100001B56FB585B587FC
:1044A60086EC03F023EC01F0C70E0D6E0D2EFED741
:1044B60000000000300E5E100001B56FB58786EC77
:1044C60003F023EC01F0100E0C6E940E0D6E0D2E03
:1044D600FED70C2EFCD70000200E5E100001B56F33
:1044E600B585B58786EC03F023EC01F0C70E0D6E9B
:1044F6000D2EFED700000000200E5E100001B56FE5
:10450600B58786EC03F023EC01F0E7EC03F0100E20
:104516000C6E940E0D6E0D2EFED70C2EFCD70000E1
:10452600280E0001B06F57EC07F0060EB06F57EC7F
:1045360007F00C0EB06F57EC07F0010EB06F57EC9A
:0445460007F0120068
:10454A000DEC24F00E0E0001736F140E726F020E42
:10455A00716F010E746F0A0E756F0B0E766F180E5F
:10456A00776F780EC86EBEDE39DF710E5E6E000E92
:10457A005F6E35DE710E5E6E000E5F6E8BDD71C092
:10458A005EF0000E5F6EF2DE00C07AF001C07BF0D2
:10459A0072C05EF0000E5F6EE9DE00C078F001C006
:1045AA0079F073C05EF0000E5F6EE0DE00C081F04D
:1045BA0001C082F0690E7C6F000E7D6FFB0E7E6F6C
:1045CA00470E7F6F000E806F78C083F079C084F049
:1045DA007AC085F07BC086F038DD010E7C6F010E53
:1045EA007D6F690E7E6F000E7F6F65DE74C05EF0B0
:1045FA00000E5F6EBBDE010E7C6F0E0E7D6F7405C2
:10460A00036E046A000E045A03C000F004C001F0ED
:10461A00003600900136290E0024E96E000E0120B2
:10462A00EA6EEECF7EF0EECF7FF045DE77C05EF029
:10463A00000E5F6E9BDE00C07AF001C07BF076C090
:10464A005EF0000E5F6E92DE00C078F001C079F075
:10465A0075C05EF0000E5F6E89DE00C081F001C099
:10466A0082F0690E7C6F000E7D6F0A0E7E6F480E17
:10467A007F6F000E806F78C083F079C084F07AC0B3
:10468A0085F07BC086F0E1DC020E7C6F010E7D6F47
:10469A00690E7E6F000E7F6F0EDE100E0B6E390EE6
:1046AA000C6E0D0E0D6E0D2EFED70C2EFCD70B2E9A
:0A46BA00FAD7000000005ED7FFD71A
:10481A0010EE15F0350E006E010E016EC40EF66E26
:0E482A00460EF76E000EF86EB3EC21F0120091
:0446C4005155490003
:0446C8005155410007
:0446CC005341420014
:0446D00053455800F6
:0446D400444F4D0002
:0E46D80025003B0037001900150021001D00D1
:0446E60054455200E5
:0446EA0053454700ED
:0446EE0000000000C8
:0746F200286E756C6C2900B5
:1046F9000000007FCDCC4C7B0AD723786F1203755D
:1047090017B75171ACC5276EBD37066B95BF566794
:1047190077CC2B645F700961FFE65B5D08E53C3C83
:044729006042221BAD
:10472D000000007F000020820000488500007A888C
:10473D0000401C8C0050438F002474928096189674
:10474D0020BC3E99286B6E9CF90215A0EC782DC10A
:04475D00CAF249E271
:1047610001000000080000004000000000020000FD
:104771000010000000800000000004000000200084
:1047810000000001000000080000004000000000DF
:10479100010000000A00000064000000E8030000BE
:1047A10010270000A086010040420F00809698006B
:0847B10000E1F50500CA9A3B86
:1047B90001000000100000000001000000100000CE
:1047C90000000100000010000000000100000010BE
:1047D900303132333435363738396162636465666E
:0147E90000CF
:1047EA00303132333435363738394142434445461D
:0147FA0000BE
:0F47FB00253032753A253032753A253032750047
:0F480A00253032752F253032752F25303275004D
:020000040030CA
:0E00000000235F3CFFD381FF0FC00FE00F40D5
:00000001FF
